:020000040000FA
:100000000A128A11D92F00308A000408840A820754
:10001000003442346F346D346234613420344434FB
:1000200027344134673475346134003442346534E4
:100030006D34203442346134693478346F340034A0
:100040004E346934763465346C343A3420340034B8
:10005000503472346F346A34653474346F3400341D
:100060004D346F3474346F347234203400344D3472
:100070006534643469346F3400344334683465342F
:1000800069346F34003441346C3474346F34003468
:0E0090004F344634463400344F344E3400347E
:1004A600063400341A342C343E34FA00F801F901CB
:1004B6006F2A78087A0784000A128A1103200A1222
:1004C6008A110A128A11D8220A128A110130F807F3
:1004D6000318F90A0030F90778087A0784000A1227
:1004E6008A1103200A128A11003A031D7B2A7C2AEC
:1004F6005C2A0800F7000130F40083120313320867
:100506000739013E882A0310F40DFF3E031D862A93
:100516007408FF3AF500300884008317311C8313F2
:100526007508800577080A128A1176230A128A113D
:100536000130F40083120313320CF500F50C750C30
:100546000739013EA82A0310F40DFF3E031DA62A13
:100556007408F600300884008317311C831376086C
:1005660080040B30F5006230F400F40BB82AF50B6A
:10057600B82A00000130F40083120313320CF50090
:10058600F50C750C0739013ECA2A0310F40DFF3E1F
:10059600031DC82A7408FF3AF60030088400831742
:1005A600311C8313760880050800F7000130F4003B
:1005B6008312031332080739013EE32A0310F40DB0
:1005C600FF3E031DE12A7408F500300884008317F6
:1005D600311C8313750880047708F4000430031077
:1005E600F40CFF3E031DF22A74080F390A128A1111
:1005F60076230A128A110130F40083120313320C97
:10060600F500F50C750C0739013E0B2B0310F40DA4
:10061600FF3E031D092B7408F6003008840083177B
:10062600311C8313760880041A30F400F40B192B5E
:1006360000000130F40083120313320CF500F50CB0
:10064600750C0739013E292B0310F40DFF3E031DDF
:10065600272B7408FF3AF600300884008317311CF4
:1006660083137608800577080F390A128A117623D4
:100676000A128A110130F40083120313320CF500BA
:10068600F50C750C0739013E4A2B0310F40DFF3E9D
:10069600031D482B7408F600300884008317311CAC
:1006A6008313760880041A30F400F40B582B0000EC
:1006B6000130F40083120313320CF500F50C750CAF
:1006C6000739013E682B0310F40DFF3E031D662B10
:1006D6007408FF3AF600300884008317311C831330
:1006E600760880050800F300731C7A2B7B2B922B6F
:1006F6000130F0008312031333080739013E852BBE
:100706000310F00DFF3E031D832B7008F100300827
:1007160084008317311C831371088004A92B0130D0
:10072600F0008312031333080739013E9C2B031094
:10073600F00DFF3E031D9A2B7008FF3AF1003008BA
:1007460084008317311C831371088005F31CAC2BBE
:10075600AD2BC52B0130F000330CF100F10C710C00
:100766000739013EB82B0310F00DFF3E031DB62BD3
:100776007008F200300884008317311C8313720856
:100786008004DD2B0130F000330CF100F10C710C0C
:100796000739013ED02B0310F00DFF3E031DCE2B73
:1007A6007008FF3AF200300884008317311C831367
:1007B60072088005731DE02BE12BF62B0130F0004B
:1007C60034080739013EE92B0310F00DFF3E031DE7
:1007D600E72B7008F100300884008317311C83135F
:1007E600710880040B2C0130F00034080739013EF3
:1007F600FE2B0310F00DFF3E031DFC2B7008FF3A85
:10080600F100300884008317311C831371088005BA
:10081600F31D0E2C0F2C272C0130F000340CF100A8
:10082600F10C710C0739013E1A2C0310F00DFF3E36
:10083600031D182C7008F200300884008317311C41
:100846008313720880043F2C0130F000340CF10051
:10085600F10C710C0739013E322C0310F00DFF3EEE
:10086600031D302C7008FF3AF2003008840083170D
:10087600311C831372088005080030308400780824
:1008860083138000840A79088000840A7A0880002D
:10089600840A7B088000840A7C088000003083126A
:1008A60003133106031D592C05303006031D5C2C3D
:1008B6005D2C612C831603138501982C00303106BC
:1008C600031D672C06303006031D6A2C6B2C6F2C1B
:1008D600831603138601982C00303106031D752CF0
:1008E60007303006031D782C792C7D2C83160313D4
:1008F6008701982C00303106031D832C0830300602
:10090600031D862C872C8B2C831603138801982CA9
:1009160000303106031D912C09303006031D942C3E
:10092600952C0F2D8316031389013430831203137C
:10093600A100F130A000A00B9E2CA10B9E2C033031
:100946000A128A117D220A128A110D3083120313AC
:10095600A100FB30A000A00BAE2CA10BAE2C0330E7
:100966000A128A117D220A128A112A30831203136F
:10097600A1008D30A000A00BBE2CA10BBE2C033015
:100986000A128A117D220A128A1102300A128A116B
:100996007D220A128A1102300A128A117D220A1257
:1009A6008A1108300A128A117D220A128A11003031
:1009B6000A128A117D220A128A1106300A128A1137
:1009C6007D220A128A11083083120313A000200820
:1009D600FD007D157D08A00004300310A00CFF3E2D
:1009E600031DF02C20080F390A128A117D220A12E3
:1009F6008A117D080F390A128A117D220A128A117C
:100A060000300A128A117D220A128A1101300A1256
:100A16008A117D220A128A110800103083120313EC
:100A2600AC000030AD00AA01AB01073083160313FA
:100A36009C0006309F000F3085008312031385014A
:100A46008801870183160313860187018030880099
:100A5600831203130815881725308400350883137D
:100A66008000840A36088000840A37088000840AD9
:100A760038088000840A3908800078308400250808
:100A86008000840A26088000840A27088000840AD9
:100A960028088000840A290880000A128A11402446
:100AA6000A128A1100300A128A117D220A128A114C
:100AB60001300A128A117D220A128A110630831227
:100AC6000313A4001330A300AD30A200A20B692DBE
:100AD600A30B692DA40B692D08300A128A117D22F9
:100AE6000A128A1100300A128A117D220A128A110C
:100AF60020300A128A1158220A128A1103308312F0
:100B06000313A4000830A3007630A200A20B892D9F
:100B1600A30B892DA40B892D00000C300A128A1113
:100B26007D220A128A1100300A128A117D220A12C7
:100B36008A1101300A128A1158220A128A110630C5
:100B460083120313A4001330A300AD30A200A20B3E
:100B5600AA2DA30BAA2DA40BAA2D83120313AE0153
:100B6600AF0101300A128A117D220A128A110C3055
:100B76000A128A117D220A128A1102308312031385
:100B8600A4008630A3009830A200A20BC82DA30BA8
:100B9600C82DA40BC82D0000013083120313AE0725
:100BA6000318AF0A0030AF072F08803AFF008030E5
:100BB6007F02031DE02D0F302E02031CE32DE42DD2
:100BC600B42D83120313AE01AF0100300A128A114D
:100BD6007D220A128A1101300A128A117D220A1216
:100BE6008A1108300A128A117D220A128A110030EF
:100BF6000A128A117D220A128A1118300A128A11E3
:100C060058220A128A110C300A128A117D220A12FF
:100C16008A1100300A128A117D220A128A1128309E
:100C26000A128A1158220A128A11831203132D08F6
:100C3600803AFF0080307F02031D232E01302C02F4
:100C4600031C262E272E312E831203130815FF3080
:100C5600AC070318AD0AFF30AD07342E8312031319
:100C660008112B08803AFF0080307F02031D3D2EBD
:100C760001302A02031C402E412E5C2E83120313E0
:100C86000814023083120313A4008630A3009830A0
:100C9600A200A20B4C2EA30B4C2EA40B4C2E000034
:100CA600831203130810FF30AA070318AB0AFF309C
:100CB600AB0783120313881B612E622E662E10303B
:100CC600AC000030AD000F300506031D6B2E6C2EF8
:100CD600A82E881408300A128A117D220A128A1157
:100CE60007300A128A117D220A128A110E300A1260
:100CF6008A1158220A128A110C300A128A117D2290
:100D06000A128A1106300A128A117D220A128A11E3
:100D160044300A128A1158220A128A1101308312AB
:100D2600031387002E082F04031D9A2E9B2EA32E35
:100D36001030AC000030AD000330AA000030AB002C
:100D46000130AE000030AF00C72F0E300506031D80
:100D5600AD2EAE2EF22E08300A128A117D220A120C
:100D66008A1107300A128A117D220A128A1112305C
:100D76000A128A1158220A128A11831203132E03A9
:100D86002F04031DC72EC82EDB2E0C300A128A1123
:100D96007D220A128A1106300A128A117D220A124F
:100DA6008A1144300A128A1158220A128A11ED2E2B
:100DB6000C300A128A117D220A128A1106300A1292
:100DC6008A117D220A128A1140300A128A1158228B
:100DD6000A128A110330831203138700C72F0C30BF
:100DE6000506031DF72EF82E3C2F08300A128A112D
:100DF6007D220A128A1107300A128A117D220A12EE
:100E06008A112F300A128A1158220A128A11831265
:100E160003132E032F04031D112F122F252F0C3021
:100E26000A128A117D220A128A1106300A128A11C2
:100E36007D220A128A1144300A128A1158220A1295
:100E46008A11372F0C300A128A117D220A128A1152
:100E560006300A128A117D220A128A1140300A12BD
:100E66008A1158220A128A11073083120313870047
:100E7600C72F08300506031D412F422F862F083045
:100E86000A128A117D220A128A1107300A128A1161
:100E96007D220A128A113B300A128A1158220A123E
:100EA6008A11831203132E032F04031D5B2F5C2F5D
:100EB6006F2F0C300A128A117D220A128A1106300F
:100EC6000A128A117D220A128A1144300A128A11E4
:100ED60058220A128A11812F0C300A128A117D2299
:100EE6000A128A1106300A128A117D220A128A1102
:100EF60040300A128A1158220A128A110F308312C0
:100F060003138700C72F0508031D8A2F8B2FC52FB4
:100F160008300A128A117D220A128A1107300A1233
:100F26008A117D220A128A1135300A128A11582234
:100F36000A128A110C300A128A117D220A128A11AB
:100F460006300A128A117D220A128A1140300A12CC
:100F56008A1158220A128A118312031388102E034B
:100F66002F04031DB72FB82FC02F1030AC00003050
:100F7600AD000330AA000030AB00AE01AF011F3058
:100F86008700C72F0F308500023083120313A40099
:100F96004530A300A930A200A20BCF2FA30BCF2F61
:100FA600A40BCF2FE82D0A128A1100280A128A11E3
:100FB60053220A128A11B5000A128A1154220A1201
:100FC6008A11B6000A128A1155220A128A11B7002E
:100FD6000A128A1156220A128A11B8000A128A11B6
:100FE60057220A128A11B900B001B101B201B30148
:0A0FF600B40183010A128A11102DC4
:02400E007A3FF7
:00000001FF
